:020000040800F2
:10000000904A00200D030008A5330008A52B000826
:100010009D330008490A0008F93900080000000073
:100020000000000000000000000000004D02000879
:10003000650C000800000000A90200081135000846
:1000400027030008270300082703000827030008E8
:1000500027030008270300082703000827030008D8
:1000600027030008270300082703000827030008C8
:1000700027030008270300082703000827030008B8
:1000800027030008270300082703000827030008A8
:100090002703000827030008270300082703000898
:1000A0002703000827030008270300082703000888
:1000B0002703000827030008270300082703000878
:1000C0002703000827030008270300082703000868
:1000D00027030008CD39000827030008270300087C
:1000E0002703000827030008270300082703000848
:1000F0002703000827030008270300082703000838
:100100002703000827030008270300082703000827
:100110002703000827030008E1350008270300082B
:100120002703000827030008690A000827030008BE
:1001300027030008270300082703000827030008F7
:1001400027030008270300082703000827030008E7
:1001500027030008270300082703000827030008D7
:1001600027030008270300082703000827030008C7
:1001700027030008270300082703000800000000E9
:1001800027030008270300082703000827030008A7
:100190002703000827030008270300082703000897
:1001A00000000000000000002703000800F002F833
:1001B00000F03CF80AA090E8000C82448344AAF1C5
:1001C0000107DA4501D100F031F8AFF2090EBAE8C3
:1001D0000F0013F0010F18BFFB1A43F0010318477B
:1001E0006C5500008C550000103A24BF78C878C1C7
:1001F000FAD8520724BF30C830C144BF04680C602D
:10020000704700000023002400250026103A28BF74
:1002100078C1FBD8520728BF30C148BF0B60704778
:100220001FB505F075F91FBD10B510BD00F074F9CC
:100230001146FFF7F5FF04F063FB00F092F903B4F9
:10024000FFF7F2FF03BC00F095F900002C4B196892
:100250000868B0E8F04F80F30988BFF36F8F4FF064
:10026000000080F311887047000000000848006813
:10027000006880F308884FF0000080F3148862B6AD
:1002800061B6BFF34F8FBFF36F8F00DF00BF00BFBA
:1002900008ED00E0DFF80C00016841F47001016036
:1002A000704700BF88ED00E0EFF30980BFF36F8F68
:1002B000134B1A681EF0100F08BF20ED108A20E9BA
:1002C000F04F106009B44FF0500080F31188BFF375
:1002D0004F8FBFF36F8F04F04DFF4FF0000080F39E
:1002E000118809BC19680868B0E8F04F1EF0100FBB
:1002F00008BFB0EC108A80F30988BFF36F8F704796
:100300001C000020EFF3058070470000094880477B
:1003100009480047FEE7FEE7FEE7FEE7FEE7FEE7E7
:10032000FEE7FEE7FEE7FEE704480549054A064BFF
:1003300070470000D1350008AD010008904400204E
:10034000904A0020904600209046002053EA020C7C
:1003500000F069802DE9F04B4FF00006002B1FBF25
:10036000B3FA83F503FA05F424FA05F65E4012BFEA
:100370001643B2FA82F502FA05F4C5F120051EBF54
:1003800022FA05FC44EA0C04203556EA044C4FEAF4
:10039000144418BF641C4FF000084FF0000990424D
:1003A00071EB030C39D3002919BFB1FA81F701FAB7
:1003B00007F6B0FA80F700FA07F6C7F120071EBF6C
:1003C00020FA07FC46EA0C062037B6FBF4FCA7EB44
:1003D0000507103F07F01F0BCBF120060CFA0BFBB3
:1003E0002CFA06F644BFB3460026202FA4BF5E4673
:1003F0004FF0000B5BEA060C08BF4FF0010B19EB46
:100400000B09ABFB027C48EB0608C01B06FB02CCC9
:100410000BFB03CC71EB0C01C1E70B4602464146D6
:100420004846BDE8F08B13B54FF000004FF00001D7
:10043000AFF30080BDE81C40704710B5203AC0F013
:100440000B80B1E81850203AA0E81850B1E81850D5
:10045000A0E81850BFF4F5AF5FEA027C24BFB1E812
:100460001850A0E8185044BF18C918C0BDE8104083
:100470005FEA827C24BF51F8043B40F8043B08BF8C
:100480007047D20728BF31F8023B48BF11F8012B53
:1004900028BF20F8023B48BF00F8012B70474FF0FF
:1004A000000200B5134694469646203922BFA0E8C4
:1004B0000C50A0E80C50B1F12001BFF4F7AF0907D0
:1004C00028BFA0E80C5048BF0CC05DF804EB8900C1
:1004D00028BF40F8042B08BF704748BF20F8022B04
:1004E00011F0804F18BF00F8012B7047704770471C
:1004F000704710B500F008F8006810BD10B504464C
:1005000000F002F8046010BD004870472C44002041
:10051000004870472C4400207546FFF7F9FFAE46AF
:1005200005006946534620F00700854618B020B5FF
:10053000FFF7FAFEBDE820404FF000064FF000073D
:100540004FF000084FF0000B21F00701AC46ACE87B
:10055000C009ACE8C009ACE8C009ACE8C0098D46E8
:10056000704710B50446AFF300802046BDE8104048
:10057000FFF765BE01491820ABBEFEE7260002006A
:100580007047000010B5044604F1440190ED243A90
:10059000234891EC030A0C39D1EC031A00F012FE47
:1005A0001F4800F062FB00F077FED4ED181A1D49D9
:1005B000C4ED1B1A84ED181AC4ED190A84ED1A0A49
:1005C00094ED110AF7EE000A84ED1E0A94ED120A6A
:1005D00084ED1F0A94ED130A84ED200A94ED170AA6
:1005E00084ED210A31EE610A10EE100A884204D926
:1005F00094ED1D0A30EE200A08E010EE100A0A49B8
:1006000094ED1D0A884203DD30EE600A84ED1D0A78
:10061000DFED060A00EE201A84ED1C1A10BD000062
:1006200068430020000096C3000096430000B443D6
:1006300070B504462DED068B90F89500002842D148
:100640000025204600F0D8F894ED0E0A01207AEE3D
:1006500080AA94ED0F0A38EE008A94ED100A78EE25
:10066000808A94ED110A39EE009A94ED120A79EE1F
:10067000809A94ED130A3AEE00AA00F0A7FF6D1CD1
:10068000C82DDEDBB7EE001A9FED100A0120CAEE7E
:10069000800AC4ED050AC8EE000AC4ED060AC8EED9
:1006A000800A70EEC10AC4ED070AC9EE000AC4ED63
:1006B000080AC9EE800AC4ED090ACAEE000AC4EDB0
:1006C0000A0A84F89500BDEC068B70BD0000484313
:1006D00070B50E46044601461546282000F08AF9FA
:1006E000022000F073FF0A21292000F083F9022084
:1006F00000F06CFF0121642000F07CF9022000F082
:1007000065FF44F08001252000F074F9022000F01C
:100710005DFF3146262000F06DF9022000F056FF03
:100720000321342000F066F9022000F04FFF03217E
:10073000672000F05FF9022000F048FF81212A20A5
:1007400000F058F9062000F041FF45F08001272015
:1007500000F050F9BDE87040022000F037BF000003
:1007600030B585B0002414220B496846FFF765FEBA
:100770004FEA0D0505EB4400417815F8140000F030
:1007800039F9012000F022FF641CE4B20A2CF1D3F5
:1007900002F009FA05B030BD90550008F8B5134FC6
:1007A00015460E46044600224021384601F03AF82C
:1007B0000F4944F0800037240870891C4A1E0870D5
:1007C0000123891E0B48009401F058FC08492B4670
:1007D0003246891C0748009401F050FC044601226F
:1007E0004021384601F01EF82046F8BD00140240B2
:1007F000A800002034030020F0B587B0044601F0C3
:1008000017F800EE100AF8EE400A9FED601A0E226B
:1008100002A980EE810A3B2084ED220AD4ED230A4E
:1008200070EE600AC4ED240A84ED230AFFF7B6FFD8
:1008300084F89600062269464920FFF7AFFFBDF80D
:10084000080040BA06B22680BDF80A0000EE106A21
:1008500040BA05B26580BDF80C00F8EEC00A40BA97
:1008600003B2A380BDF80E0040BA02B26282BDF8A6
:10087000100040BA01B2E180BDF8120040BA00B2E7
:100880002081BDF814707FBA3FB26781DDF800C0E7
:10089000C4F80CC0BDF804C0A4F810C09FED3C0A19
:1008A00020EE801A00EE905AF8EEE00A60EE801A10
:1008B00000EE903AF8EEE00A20EE802A00EE101AE0
:1008C000DFED340AB8EEC00AC0EE202A00EE100AAE
:1008D00004F13800B8EEC00A80EE203A00EE107A3B
:1008E000B8EEC00AC0EE203A80EC061AB4F90C004B
:1008F00000EE100AB8EEC00A84ED140AB4F90E0036
:1009000000EE100AB8EEC00A84ED150AB4F9100022
:1009100000EE100AB8EEC00A84ED160A00EE102AA6
:10092000F8EEC00A9FED1C4A80EE840AF3EE050A39
:1009300030EE200A84ED170A94F89500012823D19F
:1009400094ED050A31EE400A84ED0E0A94ED060A94
:1009500031EEC00A84ED0F0A94ED070A32EE400A28
:1009600084ED100A94ED080A32EEC00A84ED110AF3
:1009700094ED090A33EE400A84ED120A94ED0A0A56
:1009800033EEC00A84ED130A07B0F0BD00007A44CC
:10099000000080396F1283415CEFA64390ED180A86
:1009A00080ED1B0A9FED030A80ED1C0A80ED1D0AF5
:1009B000704700000000000008490A48084BD1F8C1
:1009C000842000689A4202DA41F2873103E0012272
:1009D00081F894200021816370470000D0420020FC
:1009E000000048428C0300200421014801F0E0BFD0
:1009F0008C030020F8B5114F0E460446002240211A
:100A0000384600F00FFF04F07F000D4C3725621CC4
:100A100020700123511E0B48009501F02FFB26701A
:100A2000621C0123511E0748009501F027FB01229B
:100A30004021384600F0F6FE0020F8BD00140240C8
:100A4000A800002034030020FEE700000548B0F8AD
:100A50005C1021B15FF0000180F85E107047012149
:100A6000FAE70000CC43002070470000016818231B
:100A7000CAB2103AB2FBF3F2054B6FF30901032A35
:100A80009B5CC36500D9091D81650846704700005D
:100A90007055000810B5014600208B698A6A4FF036
:100AA000C07453B1B3F5005F15D072B1012A0CD0F8
:100AB000022A0AD0032A09D104E01AB1012A06D079
:100AC000022A03D1C96AC90100D5012010BDC96A33
:100AD000A142FAD010BD002AF7D0012AF2D0022A92
:100AE000F3D0032AF3D010BD30B50468256825F48F
:100AF00080252560046863608368402B036803D009
:100B000099600068C26030BD9A600068C16030BD05
:100B1000F0B500285FD08178C278890941EA820166
:100B200002792D4C41EA8221C1F30A06A6F58066BE
:100B3000E68301794279490841EAC211C1F30A0505
:100B4000A5F5806525840188C1F30A03A3F58063B8
:100B5000638441788278C90841EA4211C1F30A02EC
:100B6000A2F58062A284018AC1F30A01A1F5806125
:100B700021854779BF0984F826704779C7F30117A3
:100B800084F82770C788E78207892783077B07B126
:100B90000127A776477B07B10127E776C0896085E3
:100BA00000201436282E00D8E0831435282D00D8D4
:100BB00020841433282B00D860841432282A00D8CB
:100BC000A0841431282900D8208502F0DFF834F8F9
:100BD0005C0F401C2080F0BDCC43002010B50446C3
:100BE000806B0068016821F001010160A06B006862
:100BF0004068042802D10748FFF78AFFA16B16203E
:100C000009684860A06B0068016841F0010101605B
:100C100010BD0000CC43002038B5016800250A68EB
:100C20004A680092CA6842F40052CA600168CA6801
:100C300042F01002CA600446094A90F83E0020289B
:100C40000DD11623A262A38525642168A06B091D1E
:100C500000F098FC2068416941F04001416138BDD5
:100C6000CC430020704772B6FEE7103090EC040AC7
:100C7000704700001FB5064B04460FCB8DE80F00F0
:100C80006946204600F092F8204600F003F81FBDA8
:100C9000A4550008114A10B51ECA00F1100CB2EE9E
:100CA000040A8CE81E000021016241620122816277
:100CB00080F82C2080ED0C0A8163C16301644164DB
:100CC0008164C16480F85010416580F8581080F844
:100CD0005910C16580F8601010BD0000B4550008BF
:100CE00070B505462DED048BB6EE008AB0EE409A45
:100CF00090ED061AF0EE480A90ED070A41EE410A1F
:100D0000D0ED041A40EE400A21EE800AD0ED051A1B
:100D100001EE810A02F02AFFF0EE408AB0EE490AA5
:100D200000F098FA38EEC00A002460EE088AB0EEAF
:100D3000680A03F071F8B0EE408AB0EE680A03F07A
:100D400045FC05F11000B1EE401AD0EC041AB0EEEB
:100D5000480A00EE904A60EE213A20EE024A60EE28
:100D6000224A20EE030A40EEC23A00EE904A00EE1C
:100D7000A20A40EEC34A00EEA14A40EEE23A00EE7B
:100D8000C20A40EEA14A00EE834A41EE433A01EE28
:100D9000210A41EE024A01EE624A85ED070A10354A
:100DA000C5EC033ABDEC048B70BD000070B50D4678
:100DB0002DED028BF6EE008A91ED000A9FED268A5A
:100DC00080ED000A91ED010A0446B5EEC00AF1EE8D
:100DD00010FA28D0E86830B300F03CFA03F0F6FBD4
:100DE00020EE280AF0EE000A03F0BEF884ED010AB6
:100DF00095ED020AB5EEC00AF1EE10FA16D0E868D9
:100E0000A0B100F027FA03F0E1FB20EE280AF0EE93
:100E1000000A03F0A9F884ED020AE868E06094F89B
:100E20002C0030B109E084ED018AE1E784ED028A0B
:100E3000F3E794ED000A84ED0C0A94ED000AF2EE5B
:100E4000040A30EEC00AF0EE080A80EE201A84EDA3
:100E50000D1ABDEC028B70BDFFFF7F7F2DE9F04FB7
:100E600004462DED0E8B203083B00025B0EE64AA31
:100E7000F0EE43AAB0EE63BAF0EE44BAB0EE40CA68
:100E8000C0EC031AF0EE60CA94F82C00B0EE41DA20
:100E9000012814D194ED0C0AD4ED0D0A00EECA0A13
:100EA00084ED0C0AD4ED000AB4EEE00AF1EE10FA7B
:100EB00005D2C4ED0C0A84F82C5084F8585094EDF7
:100EC000070AB6EE008AD4ED040A94ED053A94EDD3
:100ED000061AF0EE488A23EE009A50EEA08A61EEE0
:100EE000009AA94600EEC19AB0EE621A40EE839ACB
:100EF00040EE008AF0EE420AB0EE610ACA460126D0
:100F0000D34684F85060F0EE41EAB0EE60EAF0EECD
:100F100040DA00F040FAE8BBE168606D884211D920
:100F2000D4E90580E1692769CDE900012046FFF792
:100F3000B1FEDDE900016565C4E90601C4E9047894
:100F400084F85860B0EE6E1AF0EE4E0AB0EE6D0AFC
:100F500000F046FAF0EE682AB0EE692AF0EE491A7F
:100F600000F0F7F904F1380080EC030A94F82C0043
:100F7000012808D000F022FAD4ED010AB4EEE00A0C
:100F8000F1EE10FA20D804F1380007C881468A46ED
:100F9000934600E009E084F85050606D0A2801D3C0
:100FA0000A2100E00021401A60652F460120B84662
:100FB00084F85900B0EE6B1AF0EE4B0AB0EE6A0AF4
:100FC00000F0E9F918B169E0606D401CECE784F8C5
:100FD0006050E168E06D2E46884214D9F0EE6B2A2D
:100FE000B0EE4B2AF0EE6A1AB0EE681AF0EE690A1B
:100FF000B0EE490A00F006F92046FFF771FE012025
:10100000E66584F86000D4ED060A94ED040AD4ED98
:10101000051A94ED071A10EE008A61EEA0DA20EEB0
:1010200081EAF0EE6B2AB0EE4B2A40EE01DA00EED8
:1010300061EA00EEA08AF0EE6A1AB0EE681AF0EEED
:10104000690AB0EE490A00F084F900F0C9F9F0EE3F
:101050004E2AB0EE482AF0EE6D1A00F07AF904F14B
:10106000440080EC030A94F82C00012808D000F01A
:10107000A5F9D4ED020AB4EEE00AF1EE10FA7CD83C
:10108000D4E91270656C804684F85960E06D0A28D6
:1010900001D30A2100E00021401AE065B6EE000A03
:1010A00000F0D8F8F0EE401AB0EE4D1AF0EE6C0AEF
:1010B000B0EE4C0A00F08DF9B0EE409AF0EE608A86
:1010C000B0EE418A02EE908A02EE107A01EE905A5A
:1010D00001EE10BA00EE90AA00EE109A00F032F97C
:1010E000D4ED0C1A00F075F9F0EE412AB0EE602A4A
:1010F000F0EE401AB0EE481AF0EE680AB0EE490A77
:1011000000F020F9D4ED048A94ED058A94ED069A56
:10111000D4ED079AF0EE4A1A00F05BF928EE402A67
:1011200068EE802A68EEA01A09EE602A49EE012ACC
:1011300048EE411A09EEC12A28EE811A49EEE02A4A
:1011400049EE801A08EE201A78EE220A79EE211A6A
:1011500009EE401A38EE820AF0EE608AB0EE618A3B
:1011600084ED040AC4ED050A39EE811AC4ED061AAD
:10117000F0EE409A84ED071A00E020E029EEA90A7B
:10118000B0EE419A08EEA80A08EE080A09EE090A2C
:1011900000F068F829EE801A68EE800A68EE001AFE
:1011A00029EE000A84ED041AC4ED050AC4ED061AFE
:1011B00084ED070A03B0BDEC0E8BBDE8F08FE06D47
:1011C000401C6AE7002110B5F0EE434A044604EEE5
:1011D000101A03EE901A03EE101AFFF73FFE94F870
:1011E0002C0001280AD194F85800002806D1204686
:1011F000BDE810409FED020AFFF772BD10BD000070
:101200000000000010B52DED048BF0EE419AB0EE19
:10121000609AF0EE408A00F0ADF800F0FDF8B0EE14
:10122000408AF0EE692AB0EE492AF0EE681A00F022
:10123000A1F800F0F1F8F0EE400AB0EE480A02F032
:1012400095FCDFED030ABDEC048B20EE200A10BDF7
:10125000E02E6542DFED020A20EE200A7047000012
:1012600035FA8E3C10EE100A9FED091A0749A1EBE2
:10127000600020EE010A00EE900A20EE201A9FED99
:10128000050A01EE600A20EE200A704712141F5F63
:1012900012D3363FFF51D83F10B52DED088BB6EE77
:1012A000008AB0EE40AA01EE418A2AEE200AF0EE52
:1012B000609AB0EE419AF0EE618A01EE210AF0EEFA
:1012C000480A49EEE90A02F051FCDFED1BAAB0EE34
:1012D000491AF0EE681A20EE2ABA2AEE010AF0EE58
:1012E000000A01EEE90A20EE200A10EE100A10F1C1
:1012F000814F02D39FED110A09E010EE100AB0F100
:101300007E5F02DB9FED0E0A01E002F099FB60EECA
:101310002ABA08EEE88A2AEE280A09EE890AF0EECF
:10132000480A02F023FC20EE2A1AB0EE4B0AF0EE37
:101330006B0ABDEC088B10BDE02E6542DB0FC9BF08
:10134000DB0FC93F30EE210A70EE820A31EE221A1D
:101350007047B0EE603A61EE210A63EE223A40EE49
:10136000620A41EE423A20EE021A03EE611AB0EE32
:10137000630A7047B0EE603A61EE210A63EE223AEA
:1013800040EE620A41EE423A20EE021A03EE611A82
:10139000B0EE630A7047B5EEC00AF1EE10FA0BD159
:1013A000F5EEC00AF1EE10FA06D1B5EEC01AF1EE74
:1013B00010FA01D1012070470020704720EE000A8A
:1013C00060EEA00A21EE011A30EE200A30EE010A8A
:1013D000704720EE210A60EEA10A21EE211A704723
:1013E00010B52DED048BF0EE418AB0EE608AB0EEC0
:1013F000409AFFF7E3FFFFF735FFF0EE401AB0EE3B
:10140000681AF0EE480AB0EE490ABDEC048BBDE85C
:101410001040FFF7DEBF000060EE001A20EEA02AA9
:1014200061EE012A0E4971EE821A71EEA21ADFED09
:101430000D2A11EE900A61EEA21AA1EB600002EEF5
:10144000100A61EE822ADFED081A42EEC21A61EE3E
:10145000821A20EE210A60EEA10A21EE211A7047BD
:1014600012141F5F12D3363FFF51D83F0A4810B500
:10147000006880470948006880470948FFF7FAFB81
:101480000848416808488847084800688047BDE820
:101490001040002003F0DABD8400002094000020FA
:1014A00068430020B8000020F4040020D40000208D
:1014B0002DE9F041044600F0BBF906465CB102207C
:1014C00084F83500002584F834502068016821F044
:1014D000010101600DE00120BDE8F08100F0A8F9F4
:1014E000801B052805D920206065032084F835007D
:1014F000F2E720680068C007F0D122681168204830
:101500000140D4E901031843D4E9033633431843B7
:1015100063691843A3691843E3691843236A1843AE
:101520000843616A042903D1D4E90B131943084322
:10153000106020684069666A20F0070130460E435B
:10154000012704280CD1A06A0643E06A40B1204676
:10155000FFF7A0FA20B14020606584F83570BAE743
:10156000206846612046FFF781FA94F85C203F210D
:1015700091408160656584F835700020ACE700001B
:101580003F8010F070B5044690F834000025012823
:101590000CD0012084F8340094F835600020012E2E
:1015A00006D084F834000225284670BD022070BDA4
:1015B000022684F8356060652046FFF795FA2068BA
:1015C000016841F001010160EEE7000070B50446DA
:1015D00000F02EF90546601C02D00448007804444F
:1015E00000F026F9401BA042FAD370BD0C00002089
:1015F0002DE9F84FDFF8F8A10022012403254FF070
:101600000F090AF1040BAAF1040E00BF0B6804FADB
:1016100002F63340B34270D10F7907F00307012F70
:1016200001D0022F16D187684FEA420805FA08FC5C
:1016300027EA0C07D1F80CC00CFA08FC4CEA070C9E
:10164000C0F808C04768B7430E79C6F30016964045
:101650003E4346600E79F643B6070AD0C7684FEAA4
:10166000420C05FA0CF6B7438E6806FA0CF63E43B8
:10167000C6600E7906F00306022E10D1D60800EBE4
:101680008608D8F8206057074FEAD76C09FA0CF79C
:10169000BE430F6907FA0CF73743C8F82070066895
:1016A0004FEA420C05FA0CF7BE430F7907F0030727
:1016B00007FA0CF7374307604E6816F4403F1CD01A
:1016C0004C4E376847F480473760366822F003078E
:1016D00006F480460096484E07EB060CDCF80868D6
:1016E00097073F0F09FA07F826EA0806DFF80C818A
:1016F000404503D14FF0000841E072E0DFF800817F
:10170000404502D14FF0010839E0DFF8F88040454C
:1017100002D14FF0020832E0DFF8EC80404502D100
:101720004FF003082BE0DFF8E480404502D14FF092
:10173000040824E0DFF8D880404502D14FF00508C6
:101740001DE0DFF8D080404502D14FF0060816E0DA
:10175000DFF8C480404502D14FF007080FE0DFF802
:10176000BC80404502D14FF0080808E0DFF8B080A7
:10177000404502D14FF0090801E04FF00A0808FA8D
:1017800007F848EA0608CCF80888DAF800605746F7
:10179000D1F804C09E435FEACC2C00D51E433E60C6
:1017A000DBF800605F46D1F804C09E435FEA8C2CF2
:1017B00000D51E433E60DEF800607746D1F804C0D5
:1017C0009E435FEA8C3C00D51E433E60084F083FB5
:1017D0003E68D1F804C09E435FEACC3C00D51E436E
:1017E0003E60521C102AFFF411AFBDE8F88F0000D4
:1017F000083C0140443802400030014000000240F3
:101800000004024000080240000C024000100240A8
:101810000014024000180240001C02400020024058
:10182000002402400AB1816170470904FBE700000F
:1018300001488068704700000C0000200248816861
:1018400002781144816070470C0000200B4810B5ED
:10185000016841F400710160016841F48061016038
:10186000016841F480710160032000F09FF80F20AF
:1018700000F006F800F050F8002010BD003C0240D7
:1018800030B505461F4887B00024016841F01001BB
:101890000160006806A900F01000009001A800F0A7
:1018A00031F90498A8B100F04DF940001649174AE3
:1018B000B0FBF1F11648491E026040F2E732C0E980
:1018C0000324C0E90114846100F03EFD040003D04C
:1018D00015E000F037F9E9E70D4800F08BFD040052
:1018E0000DD1362000F034F8102D07D20022294601
:1018F000362000F03BF80748056000E0012407B0FF
:10190000204630BD4038024040420F0000100040E9
:1019100098050020100000200C4882B0016841F4B6
:1019200080410160006800F4804000900748001F7B
:10193000016841F0805101600068002200F0805091
:1019400000900F21901E02B000F010B84438024001
:10195000002809DB00F01F020121914040098000AE
:1019600000F1E020C0F8001170470000F0B40E4B09
:101970001B680C46C3F30223C3F10705042D00D9ED
:101980000425191D072901D2002300E0DB1E0126D2
:1019900006FA05F1491E214099409E40761E1640E8
:1019A0003143F0BC02F03CB80CED00E0064900F019
:1019B000070208684FF6FF03184040EA0220034A76
:1019C00010430860704700000CED00E00000FA05CD
:1019D0002DE9F0470E46050065D0DFF81481D8F8F0
:1019E0000000F7B200F00F00B04207D288F8007094
:1019F000D8F8000000F00F00B04254D128683D4CE8
:101A0000810712D5400703D5206840F4E0502060DC
:101A10002878000703D5206840F4604020602068E3
:101A2000A96820F0F000084320602878C0072DD076
:101A3000304968680839012812D0022813D00328D9
:101A400011D00968890700292DDA216821F00301E6
:101A500001432160FFF7ECFE814641F2883A0EE037
:101A600009688903EFE709688901ECE7FFF7E0FE01
:101A7000A0EB0901514502D90320BDE8F087206899
:101A8000696800F00C00B0EB810FEFD1D8F80010BE
:101A9000404601F00F01B14207D90770006800F01D
:101AA0000F00B04201D00120E7E72878400705D5B4
:101AB0002068E96820F4E050084320602878000797
:101AC00006D52068296920F4604040EAC100206002
:101AD00000F058F82168084AC1F30311515CC8406E
:101AE0000649086006480068FFF7CAFE0020C4E700
:101AF000003C0240083802407855000818000020D9
:101B0000100000200F2202600C4A136803F0030348
:101B10004360136803F0F0038360136803F4E05339
:101B2000C36012684FF4E05303EAD2020261044832
:101B3000006800F00F00086070470000083802409D
:101B4000003C02400448054900680968044AC1F3A2
:101B50008221515CC84070471800002008380240BC
:101B6000885500080448054900680968044AC1F31B
:101B70004231515CC84070471800002008380240CC
:101B800088550008154810B5006810F00C0214487C
:101B900013D01449042A0FD0082A0ED10F4C241F49
:101BA0002268236802F03F025B0207D52068C0F379
:101BB0008810A0FB010106E0084610BD2168C1F3B2
:101BC0008811A1FB00010023FEF7C0FB2168C1F3CF
:101BD0000141491C4900B0FBF1F010BD083802403A
:101BE0000024F400001BB7002DE9F84F04006ED06C
:101BF0002078DFF84C93C007A9F104054AD009F119
:101C000004000168C1F38101012908D00068C0F314
:101C1000810002280AD1D9F80000400206D52868C0
:101C2000800337D560680028E1D033E06068B0F504
:101C3000803F10D0B0F5A02F286810D020F480305D
:101C40002860286820F4802028606068A8B1FFF729
:101C5000EFFD06460DE0286840F48030F4E740F4DC
:101C600080202860F7E700BFFFF7E2FD801B6428B3
:101C700073D828688003F7D50CE0FFF7D9FD064636
:101C800005E000BFFFF7D4FD801B6428F0D828686A
:101C90008003F7D42078DFF8AC8280074FF0000A89
:101CA0003ED5A748001D016811F00C0F08D0006850
:101CB000C0F3810002280BD1D9F80000400207D4FC
:101CC0002868800716D5E068012800D112E033E1CA
:101CD000E068B8B10120C8F80000FFF7A9FD06468A
:101CE00005E000BFFFF7A4FD801B0228C0D82868CC
:101CF0008007F7D52868216920F0F80040EAC10084
:101D000028600DE0C8F800A0FFF792FD064604E049
:101D1000FFF78EFD801B02281FD828688007F7D4A4
:101D20002078000722D5864F87486169703771B1E6
:101D300001210160FFF77CFD064604E0FFF778FD16
:101D4000801B022809D838688007F7D50EE0C0F854
:101D500000A0FFF76DFD064605E082E0FFF768FD95
:101D6000801B02287DD838688007F7D42078400788
:101D700068D5DFF8CCB100270BF13C0BDBF8000095
:101D8000C0000BD4DBF8001041F08051CBF80010FC
:101D9000DBF80000012700F0805000906B4E3068A7
:101DA000C00510D4306840F480703060FFF740FD0B
:101DB000009005E0FFF73CFD0099401A022850D83A
:101DC0003068C005F6D55E4EA0686C3601280FD08D
:101DD0000528306810D020F001003060306820F015
:101DE00004003060A068B8B1FFF722FD00900FE05A
:101DF000306840F00100F4E740F004003060F7E79D
:101E0000FFF716FD0099411A41F28830814266D8E9
:101E100030688007F4D50EE0FFF70AFD009007E078
:101E2000FFF706FD0099411A41F28830814256D8E9
:101E300030688007F4D42FB1DBF8001021F0805116
:101E4000CBF80010A069C8B33D49091D0968C1F36A
:101E5000810102294AD00228504607D0C8F8600004
:101E600000E03CE0FFF7E4FC04463BE04746C8F8EE
:101E70006000FFF7DDFC064605E000BFFFF7D8FC79
:101E8000801B02282BD828688001F7D4D4E90701E9
:101E90000843A16A2E4A490802EB0141626A41EAFD
:101EA0008211084394F82C1040EA0161C9F800102F
:101EB00001203866FFF7BCFC044606E03EE000BFA8
:101EC000FFF7B6FC001B022809D828688001F7D567
:101ED00034E000BFFFF7ACFC001B022802D903204E
:101EE000BDE8F88F28688001F4D427E00128F7D0F6
:101EF000D9F80000E26900F4800191421CD1226A05
:101F000000F03F01914217D147F6C071626A01406B
:101F1000B1EB821F10D1A26A4FF0FF3300F44031C1
:101F200003EB5202B1EB024F06D194F82C1000F0F3
:101F30007060B0EB016F01D00120D1E70020CFE746
:101F40000438024000004742800E474200700040C3
:101F50000000FFFF70B5040009D0606A002540B1A1
:101F600025616561A56294F8510040B10CE0012043
:101F700070BD6068B0F5827FF4D0E561F2E784F867
:101F80005050204600F044F8022084F851002068A8
:101F9000016821F040010160A088218900F482706D
:101FA00001F404410843A18901F400610843217C44
:101FB00001F002010843217D01F001010843218B5A
:101FC00001F400710843217F01F03801084394F8BF
:101FD000201001F080010843218D01F400510843D5
:101FE00021680860A069042101EA104094F82410D7
:101FF00001F010010843216848602068C16921F49C
:102000000061C1616565012084F85100002070BD48
:1020100010B586B0044614216846FEF740FA14490C
:102020002068884221D113480021026842F48012BE
:102030000260006800F4801005900E4814380268B1
:1020400042F020020260006800F0200005904FF48A
:10205000607000900220CDE901010320039005206B
:10206000049069460448FFF7C3FA06B010BD0000AB
:102070000050014044380240001402402DE9F84F5E
:10208000044690F8500000270A9E1D4692468B4653
:102090004FF0010901280ED0012084F85000FFF70D
:1020A000C7FB804694F85100616801280CD0B1F557
:1020B000827F07D102E00220BDE8F88FA16809B94C
:1020C000042801D00227C2E0BBF1000F27D0BAF1EB
:1020D000000F24D01DB394F85100042802D005202D
:1020E00084F8510000206065C4F838A0E587A58712
:1020F000C4F830B0E586A586206460642068016875
:10210000490603D4016841F040010160E068B0F580
:10211000006F606805D0E8B3012D46D07FE001274D
:1021200095E008B1012D39D1206B21680088C86085
:10213000206B801C2063E08E401EE0862EE020682D
:10214000816889070FD5E18E69B1B9F1010F0AD114
:10215000216B0988C160206B801C2063E08E401ECB
:10216000E0864FF0000920688168C9070CD0E18F34
:1021700051B1C068A16B0880A06B801CA063E08F88
:10218000401EE0874FF00109FFF752FBA0EB08006B
:10219000B04200E009E001D3701C50D1E08E00286D
:1021A000CDD1E08F0028CAD13FE0206B21680078B4
:1021B0000873206B401C2063E08E401EE0862EE0FA
:1021C0002068816889070FD5E18E69B1B9F1010FE7
:1021D0000AD1216B09780173206B401C2063E08ECB
:1021E000401EE0864FF0000920688168C9070CD0C6
:1021F000E18F51B1C068A16B0870A06B401CA06357
:10220000E08F401EE0874FF00109FFF711FBA0EBC4
:102210000800B04202D3701C01D010E07EB1E08E05
:102220000028CDD1E08F0028CAD142463146204651
:1022300001F0CCF828B101272020606507E00327D2
:1022400005E0A06818B92068C16880680090012086
:1022500084F85100002084F8500038462CE770477D
:10226000704710B590F83C20012A22D0012280F856
:102270003C20CA688C6822F4407222434C6822F4E5
:10228000806222430C6822F4006222430C6922F42B
:10229000805222434C6922F400522243C969002330
:1022A00022F480420A4301684A6480F83C300020EE
:1022B00010BD022010BD000070B590F83C20012A2E
:1022C00032D0012480F83C40022280F83D2003688F
:1022D0005A689D6822F070060A6832435A60134BB0
:1022E00002689A4214D0B2F1804F11D0104B9A423A
:1022F0000ED0104B9A420BD00F4B9A4208D00F4B86
:102300009A4205D00E4B9A4202D00E4B9A4204D10B
:10231000496825F080031943916080F83D40002111
:1023200080F83C10084670BD022070BD00000140DE
:102330000004004000080040000C00400004014080
:10234000004001400018004010B5040003D094F88C
:102350003D0010B107E0012010BD002084F83C00D2
:10236000204600F01FF8022084F83D00211D20685F
:1023700001F03CF9012084F8460084F83E0084F81E
:102380003F0084F8400084F8410084F8420084F85B
:10239000430084F8440084F8450084F83D000020A0
:1023A00010BD000008B50F4A01680F48914207D1DF
:1023B000016841F002010160006800F002000FE0D6
:1023C0000A4A914202D10848001DF1E7084A9142A9
:1023D00007D1016841F040010160006800F0400051
:1023E000009008BD00040040403802400004014055
:1023F0000018004090F83D10012901D001207047DD
:10240000022180F83D100168CA6842F00102CA60EA
:1024100000681149884214D0B0F1804F11D00F49A3
:1024200088420ED00E4988420BD00E49884208D00F
:102430000D49884205D00D49884202D00C49884296
:1024400004D1816801F00701062903D0016841F039
:1024500001010160002070470000014000040040BD
:1024600000080040000C0040000401400040014012
:102470000018004070B5044690F83C000025012883
:1024800017D0012684F83C60022084F83D002068C3
:10249000826822F0770222F47F4282600868502826
:1024A00038D00DDC20284FD005DC90B3102811D196
:1024B0004AE0022070BD302846D040280AD13BE0D7
:1024C00060282FD070280DD0B0F5805F03D0B0F514
:1024D000005F12D0012584F83D60002084F83C00A4
:1024E000284670BDCB68D1E90121206801F0EFF8E2
:1024F0002068816841F0770109E0CB68D1E90121CA
:10250000206801F0E4F82068816841F4804181602E
:10251000E1E719E0CA684968206801F0ADF9502187
:10252000206806E0CA684968206801F0B6F96021B1
:10253000206801F0D6F8CEE7CA684968206801F043
:102540009BF940212068F4E7226801461046F0E735
:102550002DE9F0410D46040003D094F83D0018B178
:1025600008E00120BDE8F081002084F83C0020460E
:1025700000F040F8022084F83D002068816844F2B1
:10258000070291438160211D206801F02FF8226825
:1025900090689169166A2B68AF69034340F2033073
:1025A000814341EA0721A868EF6908434FF6FC41DF
:1025B0008843E96840EA0720014328692F6A00013F
:1025C00040EA0730084369686D6926F0AA0646EAC2
:1025D0000515294393602268906154F8460B016207
:1025E000012004F81F09E0752076E0762077A075B9
:1025F0000020B7E770B586B0044614216846FDF7A1
:102600004EFF21481F4E256800231F491038022223
:102610000124B54216D10D6845F004050D60096826
:1026200001F004010591016841F0080101600068B2
:10263000694600F0080005904FF440508DE8150001
:10264000124818E0124EB54219D10D6845F0080540
:102650000D60096801F008010591016841F08001F1
:1026600001600068694600F0800005904FF440600A
:102670008DE815000748CDE90332FEF7B9FF06B033
:1026800070BD00000008004040380240000C0240CD
:10269000000C0040001C0240704770B50446006802
:1026A00001694FF00005C943890715D4C168C943C2
:1026B000890711D4E91E0161012020772068806913
:1026C0008007204602D0FFF7E7FF04E000F0DAF8C9
:1026D000204600F06CF9257720680169C943490755
:1026E00017D4C168C943490713D46FF004010161CD
:1026F000022020772068806910F4407F204602D0B5
:10270000FFF7CAFF04E000F0BDF8204600F04FF9E3
:10271000257720680169C943090716D4C168C943F0
:10272000090712D46FF008010161042020772068A6
:10273000C0698007204602D0FFF7AEFF04E000F03A
:10274000A1F8204600F033F9257720680169C943D4
:10275000C90617D4C168C943C90613D46FF0100164
:102760000161082020772068C06910F4407F20466E
:1027700002D0FFF791FF04E000F084F8204600F05B
:1027800016F9257720680169C943C90708D1C168CE
:10279000C943C90704D1891E0161204600F06CF9C4
:1027A00020680169C943090609D4C168C9430906FB
:1027B00005D46FF0800101612046FFF750FD2068CD
:1027C0000169C943490609D4C168C943490605D40A
:1027D0006FF040010161204600F058F9206801695E
:1027E000C94389060BD4C168C943890607D46FF071
:1027F000200101612046BDE87040FFF731BD70BD8A
:1028000010B586B0044614216846FDF748FE2368DB
:10281000174C002117480222A34210D1036843F04D
:1028200002030360006800F0020005902020009081
:10283000CDE90121CDE9031269460F4813E00F4CA1
:10284000A34212D1036843F480730360006800F46C
:1028500080700590C0200090CDE901210320CDE9D2
:10286000031069460648FEF7C3FE06B010BD00001F
:1028700000040040303802400004024000040140DF
:1028800000200240704770B5044690F83C000026D6
:102890000D4601280FD0012084F83C006AB1042ABB
:1028A0001DD0082A2FD00C2A3FD00126002084F802
:1028B0003C00304670BD022070BD206800F01AFF59
:1028C0002068816941F0080181612068816921F0F7
:1028D00004018161206881692A69114311E020683F
:1028E00000F038FF2068816941F40061816120684F
:1028F000816921F480618161206881692A6941EAE6
:1029000002218161D2E7206800F05AFF2068C16986
:1029100041F00801C1612068C16921F00401C16171
:102920002068C1692A69114311E0206800F07CFF2A
:102930002068C16941F40061C1612068C16921F466
:102940008061C1612068C1692A6941EA0221C161CF
:10295000ACE710B5040003D094F83D0010B107E0D7
:10296000012010BD002084F83C00204600F01EF835
:10297000022084F83D00211D206800F037FE012070
:1029800084F8460084F83E0084F83F0084F8400054
:1029900084F8410084F8420084F8430084F844003D
:1029A00084F8450084F83D00002010BD7047704752
:1029B00010B50446022249B104290ED0082913D0CB
:1029C00094F84100012816D0012010BD94F83E0073
:1029D0000128F9D184F83E200FE094F83F00012847
:1029E000F2D184F83F2008E094F840000128EBD1B0
:1029F00084F8402001E084F841200122206800F0A2
:102A000059FE16492068164A884201D0904203D1E7
:102A1000436C43F4004343642068884213D0B0F110
:102A2000804F10D00F4988420DD00F4988420AD0FC
:102A30000E49884207D0904205D00D49884202D005
:102A40000C49884204D1816801F00701062903D0AE
:102A5000016841F001010160002010BD000001404B
:102A6000000401400004004000080040000C004049
:102A7000004001400018004000680349884201D12D
:102A8000FEF7DCBE7047000000100040704770B5D4
:102A9000040004D094F83D00002510B106E00120A8
:102AA00070BD84F83C50204600F022F8242084F8C1
:102AB0003D002068C16821F40051C160204600F04B
:102AC000FFFE2068016921F490410161206841699D
:102AD00021F02A0141612068C16841F40051C160C0
:102AE0002564202084F83D0084F83E00002070BD5D
:102AF00070B586B0064614216846FDF7D0FC24491F
:102B00003068884241D123480025016841F0100116
:102B10000160006800F0100005901E48143801683C
:102B200041F0020101600068694600F00200059072
:102B3000C020009002200190012002900320039009
:102B4000072004901448FEF753FD154C13482060ED
:102B50004FF00060C4E901054014C4E9035080103F
:102B60006561C4E90650256220466562FEF7A0FC57
:102B700008B1FEF778F8B463002205212520A6638A
:102B8000FEF7F4FE2520FEF7E3FE06B070BD000060
:102B900000100140443802400004024040640240FA
:102BA00038050020FEE710B530216A20FDF722FF2E
:102BB0000A20FEF70BFD0D212420FDF71BFF0A2044
:102BC000FEF704FD0E212820FDF714FF0A20FEF772
:102BD000FDFC8E213120FDF70DFF0A20FEF7F6FCEB
:102BE00001210B2000F09CF80A20FEF7EFFC0020EA
:102BF00000F05AF8102801D0012010BD01210B204F
:102C000000F08EF80A20FEF7E1FC00210A2000F017
:102C100087F80A2000F048F808B1022010BD0A2009
:102C2000FEF7D4FC00210B2000F07AF80B2000F016
:102C30003BF808B1032010BD0A20FEF7C7FC242191
:102C4000412000F06DF8412000F02EF8242801D03A
:102C5000042010BD0A20FEF7B9FCC021422000F07C
:102C60005FF8422000F020F8C02801D0052010BDF8
:102C70000A20FEF7ABFC00212A20FDF7BBFE0A204C
:102C8000FEF7A4FC00213420FDF7B4FE0A20FEF775
:102C90009DFC062203210E20FDF71AFD6420FEF79D
:102CA00095FC002010BD0000F8B501463220FDF76C
:102CB000A1FE0A20FEF78AFC80213420FDF79AFE4F
:102CC0000A20FEF783FC134E002240213046FEF717
:102CD000A9FD114CB52037252070621C0123511E1F
:102CE0000E480095FFF7CAF9621C0123511E0B48DC
:102CF0000095FFF7C3F9012240213046FEF792FD0F
:102D0000647800213420FDF775FE0A20FEF75EFC92
:102D10002046F8BD00140240A80000203403002023
:102D200070B50D46044600212A20FDF763FE0220FF
:102D3000FEF74CFC21462920FDF75CFE0220FEF741
:102D400045FC29466420FDF755FE0220FEF73EFCB7
:102D500081212A20FDF74EFEBDE870400A20FEF7D3
:102D600035BC00210170417081707047817801226B
:102D7000491CC9B24B1E8170092B01D802707047E3
:102D80000A29FCD9002101704270704710B55D4CD2
:102D900094F82A00C10704F12C0002D0FFF7E6FFE7
:102DA00001E0FFF7DEFF94F82A008107554800F1A3
:102DB0002F0002D5FFF7DAFF01E0FFF7D2FF94F80A
:102DC0002A0041074F4800F1320002D5FFF7CEFF3D
:102DD00001E0FFF7C6FF94F82A000107494800F117
:102DE000350002D5FFF7C2FF01E0FFF7BAFF94F804
:102DF0002A00C106434800F1380002D5FFF7B6FFAC
:102E000001E0FFF7AEFF94F82A0081063D4800F18B
:102E10003B0002D5FFF7AAFF01E0FFF7A2FF94F8FD
:102E20002A004106374800F13E0002D5FFF79EFF19
:102E300001E0FFF796FF94F82A000106314800F1FF
:102E4000410002D5FFF792FF01E0FFF78AFF608D96
:102E5000C1052C4800F1440002D5FFF787FF01E0CF
:102E6000FFF77FFF608D8105264800F1470002D5FE
:102E7000FFF77CFF01E0FFF774FF608D41052148FB
:102E800000F14A0002D5FFF771FF01E0FFF769FF8B
:102E9000608D01051B4800F14D0002D5FFF766FF6C
:102EA00001E0FFF75EFF608DC104164800F150009D
:102EB00002D5FFF75BFF01E0FFF753FF608D810450
:102EC000104800F1530002D5FFF750FF01E0FFF773
:102ED00048FF608D41040B4800F1560002D5FFF712
:102EE00045FF01E0FFF73DFF608D0104054800F15B
:102EF000590003D5BDE81040FFF738BFBDE81040CA
:102F0000FFF72FBFCC430020094808B5016841F402
:102F1000800101600068002200F4800000901146EA
:102F20003A20FEF723FDBDE808403A20FEF710BD29
:102F30003038024010B596B01C2211496846FDF7A2
:102F40007CFA0021684601F001FD0E4C0C491C2260
:102F500020601C3107A8FDF770FA002107A801F0D6
:102F6000F5FC074960601C2238310EA8FDF765FAB0
:102F700000210EA801F0EAFCA06016B010BD000010
:102F80001C550008000000202DE9F04186B01421F6
:102F90006846FDF784FA36480025016841F00201D1
:102FA0000160016801F002010591016841F0010131
:102FB0000160016801F001010591016841F480712F
:102FC0000160016801F480710591016841F08001A0
:102FD0000160016801F080010591016841F0200164
:102FE0000160016801F020010591016841F00801CC
:102FF000016000681F4E00F00800059000222021AB
:103000003046FEF70FFC1C4F002240213846FEF7E9
:1030100009FCDFF8688000220E214046FEF702FC22
:1030200001242020CDE9000469463046CDE902455F
:10303000FEF7DEFA4020CDE9000469463846CDE9C6
:103040000245FEF7D5FA0E20CDE900046946404658
:10305000CDE90245FEF7CCFA03200090CDE9010549
:1030600069460748FEF7C4FA06B0BDE8F0810000E3
:1030700030380240002002400014024000000240AC
:1030800000040240104810B50E4901604FF48271EF
:10309000416000218160C1604FF400720161C0E9AC
:1030A00005123022C0E90721416281620A21C16212
:1030B000FEF750FF002803D0BDE81040FDF7D3BD58
:1030C00010BD000000500140340300201FB5002156
:1030D0000F480091019102910C4A039102602A224B
:1030E000C0E90121C16001618161FFF72DF908B1DB
:1030F000FDF7B9FD4FF48050009069460448FFF792
:10310000B9F9002801D0FDF7AEFD1FBD0018004041
:10311000AC04002010B58EB00024079408940994E4
:103120000A940B941C2168460C94FDF7B8F91E48CC
:103130001C49C0E9001441F28731C0E90241046131
:103140008461FFF701F908B1FDF78DFD4FF4805060
:10315000079007A91448FFF78DF908B1FDF783FD23
:103160001148FFF7F6FB08B1FDF77DFD0B940BA9A5
:103170000D480C94FFF7A0F808B1FDF774FD60202E
:10318000CDE9000402940422694607480494FFF73D
:103190007AFB08B1FDF767FD0348FFF731FB0EB07E
:1031A00010BD0000000400408C03002010B58CB05E
:1031B00024216846FDF773F9002416480994144940
:1031C0000A94C0E900144FF6FF71C0E9024104619E
:1031D00084610320CDE900040120CDE90204062129
:1031E0000491CDE90540CDE9074169460948FFF75B
:1031F000AFF908B1FDF737FD099409A905480A940C
:10320000FFF75AF8002801D0FDF72DFD0CB010BDD6
:1032100000080040D403002010B58CB0242168467B
:10322000FDF73DF900241648099414490A94C0E9B1
:1032300000144FF6FF71C0E902410461846103206C
:10324000CDE900040120CDE902040494CDE9054054
:10325000079469460A480894FFF77AF908B1FDF720
:1032600002FD099409A906480A94FFF725F80028E9
:1032700001D0FDF7F8FC0CB010BD0000000C0040C0
:103280001C04002010B596B000240F9410941194E3
:10329000129413941C2168461494FDF700F9202120
:1032A00007A8FDF7FCF82D482B490160A721C0E9CC
:1032B000011440F2E731C0E9031444618461FFF76F
:1032C00043F808B1FDF7CFFC4FF480500F900FA9E1
:1032D0002248FFF7CFF808B1FDF7C5FC1F48FFF7FC
:1032E00038FB08B1FDF7BFFC139413A91B481494D5
:1032F000FEF7E2FF08B1FDF7B6FC6020009041F256
:103300008830CDE9010403940494059404226946AD
:1033100012480694FFF7B7FA08B1FDF7A4FC08229B
:1033200069460E48FFF7AFFA08B1FDF79CFC079419
:10333000089409944FF400500A94CDE90B4007A972
:1033400006480E94FEF78DFF08B1FDF78CFC03488C
:10335000FFF756FA16B010BD0004014064040020C7
:103360000C4810B50A4901600B4941600021816099
:103370000C22C160C0E904128161C161FFF787FBC3
:10338000002803D0BDE81040FDF76DBC10BD000063
:1033900000100140F4040020A0860100FEE7704701
:1033A00070477047FEE7000008B501F0E3FF054CE9
:1033B000009020688047606880470221684601F0DD
:1033C000FFFDF6E78C0000207047704738B50446D3
:1033D0001248134B0068B0FBF3F04FF47A73584374
:1033E00000906068B0F5827F0DD10B4600920022FC
:1033F0008021204600F016F870B1606D40F020008A
:103400006065032038BD009830B1401E00902068F0
:103410008068C0430006F6D5002038BD18000020A3
:1034200000366E012DE9F8431E4691468846044653
:10343000089DFEF7FDF9401B351AFEF7F9F907461E
:1034400025480068C0F3CB30684338E0701C37D0A3
:10345000FEF7EEF9C01BA84203D215B1009860B385
:103460002CE02068416821F0E00141606068B0F51F
:10347000827F0BD1A068B0F5004F02D0B0F5806F0D
:1034800004D12068016821F040010160A06AB0F514
:10349000005F09D12068016821F4005101602068B3
:1034A000016841F400510160012084F851000020BE
:1034B00084F850000320BDE8F8830025401E0090EA
:1034C0002068816838EA010004D000214945BDD157
:1034D0000020F0E70121F9E71800002008B501F00D
:1034E00049FF084C084D0090A16808488847E168EA
:1034F00006488847686880470121684601F060FDFA
:10350000F2E700009400002084000020D042002058
:1035100010B5502080F31188BFF34F8FBFF36F8F2A
:1035200001F02EFF18B104494FF0805008600020D0
:1035300080F3118810BD000004ED00E030B593B0B9
:1035400030216846FCF7ABFF14210CA8FCF7A7FF5D
:103550001D480025016841F080510160006800F0BD
:10356000805011901948016841F4404101600068A1
:10357000022400F4404011900120009000040190CA
:103580008001CDE9064006200890A820CDE9090475
:1035900004200B906846FEF727FB08B172B6FEE7E1
:1035A0000CA90F2081E831004FF4A0500F904FF488
:1035B0008050109005210CA8FEF70AFA002801D0CF
:1035C00072B6FEE713B030BD4038024000700040D4
:1035D0000248016841F470010160704788ED00E025
:1035E0000148FFF75AB8000098050020F0B50268BE
:1035F000254C264D264E274F274B4FF0804CA0429E
:1036000009D0604507D0A84205D0B04203D0B842E7
:1036100001D0984204D122F0700E4A6842EA0E02AC
:10362000A0421BD0604519D0A84217D0B04215D097
:10363000B84213D0984211D0184DA8420ED0184D60
:10364000A8420BD0174DA84208D0174DA84205D06C
:10365000164DA84202D0164DA84203D122F440755F
:10366000CA682A434D6922F080022A4302608A68B0
:10367000C2620A688262A04201D0984201D10969FF
:10368000016301214161F0BD0000014000040040E0
:1036900000080040000C00400004014000400140D0
:1036A000004401400048014000180040001C004058
:1036B0000020004010B501F01F030121046A994069
:1036C0008C430462016A9A401143016210BD10B537
:1036D000846842EA032224F47F440A43224382603E
:1036E00010BD826822F070020A4342F00701816037
:1036F00070470000F0B5026A22F001020262036A1C
:1037000042688469124E24F073050C682C4323F040
:1037100002058B682B430D4DA84201D0B04205D164
:1037200023F00807CB683B4323F00403A84201D0F1
:10373000B04205D14D6922F4407215438A692A438B
:1037400042608461496841630362F0BD000001404A
:1037500000040140F0B5026A22F010020262026A1F
:10376000436884690D6824F4E64444EA05248D68BE
:1037700022F0200242EA05120F4D104EA84201D05D
:10378000B04206D1CF6822F0800242EA071222F04E
:103790004002A84201D0B04207D14D6923F44063F2
:1037A00043EA85038D6943EA850343608461496880
:1037B00081630262F0BD000000000140000401408E
:1037C000F0B5026A22F480720262026A4368C46938
:1037D00022F4007224F073050C68124E2C438D689D
:1037E00042EA05220E4DA84201D0B04206D1CF6870
:1037F00022F4006242EA072222F48062A84201D049
:10380000B04207D14D6923F4405343EA05138D6953
:1038100043EA05134360C4614968C1630262F0BDB5
:10382000000001400004014030B5026A22F48052D9
:103830000262046A4268C3690D6823F4E64343EAFE
:1038400005238D6824F4005444EA0534084DA84249
:1038500002D0084DA84204D14D6922F4804242EAC8
:1038600085124260C36149680164046230BD000092
:10387000000001400004014010B5036A046A24F00E
:1038800001040462846924F0F00444EA021423F081
:103890000A020A438461026210BD10B5036A23F074
:1038A000100303628369046A23F4704343EA02321B
:1038B00024F0A00343EA01118261016210BD0000FF
:1038C00070B5044600680169E26821F44051114373
:1038D00001612169A068E2690843616911430843F5
:1038E0002168CA6849F20C639A430243CA6020689F
:1038F0004169A26921F44071114341613149206855
:10390000884202D03049884202D1FEF72BF901E00B
:10391000FEF718F9E2690023192164253226B2F571
:10392000004F626828D0A0FB0101930F9200FCF7C2
:103930000DFD0146B0FBF5F06FF01802504301EBAE
:10394000800006EB0010B0FBF5F000F0F002B1FBD8
:10395000F5F002EB0012B1FBF5F06FF018035843DD
:1039600001EB800006EB0010B0FBF5F000F00F005B
:1039700021681044886070BDA0FB010192185B4172
:10398000FCF7E4FC0146B0FBF5F00201B1FBF5F0F9
:103990006FF01803584301EB800006EBC000B0FB4A
:1039A000F5F000F0F80002EB4002B1FBF5F05843EF
:1039B00001EB800006EBC000B0FBF5F000F0070063
:1039C000D6E70000001001400014014038B5084C53
:1039D00020680168C9060AD5C068C00607D5054831
:1039E000016820468847206801684068009038BD1B
:1039F000F4040020B8000020FEE74100080218BFD0
:103A000004200A0E18BF40F001004FF07F4232EA56
:103A1000010108BF40F00200012808BF05207047DF
:103A20000907090E002804DB00F1E02080F80014EB
:103A3000704700F00F0000F1E02080F8141D70477F
:103A400010B54FF00E402DED028BB0EE408A18EE0F
:103A5000104A00EB4400B0F1506F4AD84FF0FC40E0
:103A6000B0EB440F22D2B0EEC80AF7EE000A30EEF7
:103A7000C00AF6EE000A60EE208A18EE900A01F005
:103A8000B9F901EE100A14F0004F1DBFDFED2D0A49
:103A90009FED2D0AB1EE411ADFED2C0A08BF9FED14
:103AA0002C0AF8EE001A21EE218A05E0DFED290A42
:103AB00068EE088AB0EE600A9FED271ADFED271A3C
:103AC00030EE080A48EE811A9FED251A08EEA11A79
:103AD000DFED241A48EE811A9FED231A08EEA11A91
:103AE00068EE281ABDEC028B01EE810A30EE200A46
:103AF00010BD4FF0E440B0EB440F0CD918EE100AA3
:103B0000FFF77BFF042808BF00F048FEB0EE480A2C
:103B1000BDEC028B10BD4FF07F40B0EB440F07D2DD
:103B2000B0EE480ABDEC028BBDE8104000F020BEAC
:103B30000120FCF7E3FCBDEC028BBDE8104000F077
:103B40001DBE00000000C9BF22AAFDB90000C93F88
:103B500022AAFD390000000024FE1C3DC78AD83C83
:103B60001E67383D1B93993DAFAA2A3E70B54FF0B2
:103B700068422DED048BF0EE408A18EE900AB0EE0C
:103B8000608A18EE101A02EB4003B3F1654F3CBF98
:103B900002EB4102B2F1654F7DD200BFC0F3C753C3
:103BA000C1F3C7529A1A1B2A09DD10F0004F14BF47
:103BB0009FED830A9FED830ABDEC048B70BD12F16B
:103BC0001A0F36DA11F0004F09D010F0004F0CBF79
:103BD0009FED7D0A9FED7D0ABDEC048B70BD88EEE4
:103BE000889A19EE100AFFF708FF042808BF00F0B2
:103BF000D5FD18EE900AFFF700FF054618EE100AF3
:103C0000FFF7FBFE044619EE100AFFF7F6FE042D3F
:103C100018BF052D08D1042C18BF052C04D100288D
:103C200004BF0220FCF76AFCB0EE490ABDEC048B2D
:103C300070BD4200B2EB410F3AD910F0004F19BFEE
:103C4000DFED630A9FED630ADFED630A9FED630A10
:103C5000B0EE481A0A46B1EE688A80F00041F0EEF4
:103C6000418A10460A1A5200B2F1807F34D248408D
:103C700010F0004FDFED5A1A9FED5A2A1DBFBEEE1D
:103C8000001A70EEE10A30EE420AB6EE001A08BFE2
:103C900070EEA10A00E040E008BF30EE020AB0EE8C
:103CA000682A01EE482A08EE818AC2EE081A15E059
:103CB00011F0004F04BF9FED4C0AF0EE400AD1D046
:103CC00010F0004F19BFDFED490A9FED490ADFED03
:103CD000490A9FED490AC5E7C8EE881A21EEA11AE4
:103CE0009FED462ADFED462A41EE022A9FED452A46
:103CF00001EE222ADFED442A41EE022A9FED432AFB
:103D0000BDEC048B01EE222A21EE811A01EE020A9B
:103D100030EE210A30EE200A70BD4FF07F42B2EB48
:103D2000400F28BFB2EB410F09D2F0EE480AB0EEC7
:103D3000680ABDEC048BBDE8704000F01CBD40EA91
:103D400001035B0008BF41F0FF410BD0B2EB400F15
:103D500008BFB2EB410F08D120F0804008EE900A76
:103D600021F0804108EE101A18E7B2EB400F12BFA5
:103D70005FEA410340F0FF4001F000413FF40EAF25
:103D8000B2EB410F12BF5FEA400200F0004041F089
:103D9000FF413FF403AF4A0092EA40033FF5FEAE15
:103DA000002AACBF9FED1A0A9FED1A0A68EE808ABE
:103DB00028EE008A18EE900A18EE101AEEE60000BF
:103DC000DB0FC9BFDB0FC93FDB0F4940DB0F49C029
:103DD0000000C9BF22AAFDB90000C93F22AAFD39CF
:103DE0000060ED3EC30ACE3700000000000049C06D
:103DF00022AA7DBA0000494022AA7D3A2DAD65BDB8
:103E00008FB8D53D0FB511BE61C84C3EA8AAAABE59
:103E10000000804F0000802F10EE101A08B5444AB1
:103E20006846B2EB410F28D94FF0E640B0EB410FA6
:103E300094BF00204FF0FF3000900098002861DB15
:103E400060EE000A10F0010F45D010F0020FDFED18
:103E5000391A9FED391A00EEE11ADFED381A40EEFB
:103E6000811A21EEA01AF0EE400A40EE010A08BFC6
:103E7000F1EE600AB0EE600A08BD314B21F000425D
:103E800093423CD911F0004FDFED2E0A20EE201AAC
:103E9000DFED2D0A19BF31EE601A71EE200A31EE06
:103EA000201A71EE600ABDEEE01A11EE100A9FEDC5
:103EB000271A00F0030000EEC10A9FED251A0090BA
:103EC00000EEC10A9FED231A00EEC10A9FED221AEF
:103ED00000EEC10AB1E79FED211A9FED210A10F013
:103EE000020F00EE810A9FED1F1A00EE801AB7EE56
:103EF000000A00EE810A18BFB1EE400A08BD00F0CA
:103F000055FC9AE710EE100A4000B0F17F4F3CBF1D
:103F1000B7EE000A08BD07D14FF00100FCF7EEFA3A
:103F2000BDE8084000F02ABCBDE8084000F020BC15
:103F3000B61F927E336D4C39DA82083CA0AA2ABEA5
:103F4000490E494683F9223F0000004B0000C93F5B
:103F500000A0FD390020A2331A61342CB93AB2BA5C
:103F6000CA9F2A3DDDFFFFBE10B510EE100A2DEDF1
:103F7000068BB7EE001A10EE901AB0EE418A0022BE
:103F8000A0F5000CDFEDFE9A4FF00073BCF1FE4F80
:103F90004FF07F4403EB410C80F0B481BCF1804FC3
:103FA000C0F02082F74901449FEDF73AB1F5005F78
:103FB00040F2D48200F58021CB0C03F00F0101EE1A
:103FC000901AC3F307137F3BA0EBC350B8EEE12A6E
:103FD00000EE100A1A44DFEDED2AF0EE411A42EE2F
:103FE000221AF0EE613A70EE232A30EE632A12EEC6
:103FF000900A00F500606FF30B0001EE900A73EE7B
:10400000E13A33EE804AC1EE223A22EE230A10EE64
:10401000100A00F500606FF30B0000EE100A00EECE
:10402000612A00EE442A62EE232A70EE221A21EE63
:10403000A12ADFEDD73A02EE233A23EE023A20EE30
:10404000012A22EE811A03EE211A32EE010A10EE45
:10405000100A00F500606FF30B0000EE100A72EE1C
:10406000401A31EE812A9FEDCB1A60EE011A9FEDC6
:10407000CA1A20EE011A9FEDC90A02EE001A31EEAB
:10408000810A10EE100A00F500606FF30B0000EEDD
:10409000100AC34871EEC01A31EE812A784400EB51
:1040A000C10090ED003AD0ED011A100101EE100AA6
:1040B000F8EEC12A32EE211A31EE001A31EE031A5F
:1040C00031EE221A11EE100A00F500606FF30B00BA
:1040D00009EE100A39EE621A31EE431A31EE400A47
:1040E00030EE610A32EE40AA10EE900A002100F58F
:1040F00000606FF30B0008EE900A084670EEE8AA25
:104100004FF0000029EE280A00F00C01F0EEC00A82
:1041100010EE900AB0F18B4F0DDD10EE900AB4EB6B
:10412000400F08D310EE100A4FF08B4262F31E00CE
:1041300008EE900A13E069EE2A0A38EEAA1A4AEE4F
:10414000010A30EE201A11EE100A00F500606FF33C
:104150000B0008EE900A30EE680A70EE209A0C20F0
:104160004FF0000038EEA90AB5EEC00AF1EE10FAE1
:1041700034BFFEEE000AF6EE000A30EE800ABDEE15
:10418000C00A10EE100A011100EE101AF8EEC00A73
:1041900000EE100AB8EEC00A38EEC00A30EE290A66
:1041A000DFED801A9FED801A00EE211ADFED7F1AF5
:1041B0007F4900F00F0040EE011A21EE800A794499
:1041C00001EB800191ED001A7A49794401EB8001FD
:1041D000D1ED001A784901EE801A794401EB800094
:1041E000764990ED000A31EE001AB0EEE00A10EECA
:1041F000100A884215DA10EE100AB4EB400F10D303
:104200009FED6F0A30EE800ADFED6E0A20EE200A85
:1042100068EE010ABDEC068BBCEEC00A20EE200A57
:1042200010BD10EE100A6849884243DA10EE100AF9
:10423000B4EB400F3ED3BDEEE00A68EE010A10EE8B
:10424000100A00EBD0725110C90501F17E5100EE49
:10425000101AA0EB6200C00560EE200A00F17E504B
:1042600000EE100A60EE808A18EE900AB4EB400F60
:104270000FD10220FCF742F900F088FA10EE101A74
:1042800018EE100ABDEC068B61F31E0000EE100A5A
:1042900010BD18EE900A400011D018EE900AFFF7FA
:1042A000ACFB042808BF00F079FAB0EE680ABDEC58
:1042B000068B10BDF5EEC00AF1EE10FA0FD2022007
:1042C000FCF71CF900F06AFA10EE101A18EE100A4A
:1042D000BDEC068B61F31E0000EE100A10BD02203B
:1042E000FCF70CF900F052FA10EE101AB0EE480A82
:1042F00010EE100ABDEC068B61F31E0000EE100AF2
:1043000010BD00BFBCF1804F6CD300BF00F1FF4374
:10431000B3F1FE4F24D200BFB0EEC00A10EE100A77
:10432000C1F3C7537F2B0DDB972BBFF63BAEC3F119
:1043300096034FF0010C0CFA03F3A3F1010C1CEAF5
:10434000010F08D00120FCF7D9F8BDEC068BBDE8C1
:10435000104000F013BA0B4218BFBFEE008A21E6EE
:1043600043001CBF4FF08073B3EB400F34D96FF0A4
:104370001A02DFED161A20EE210A10EE100A27E0CD
:1043800000000000001080C0ABAAAA3E0000803DE3
:104390007EE24C3E00B03842D49AB8BB3BAA3842C9
:1043A00024150000FC596337C9FF753A1872313D76
:1043B000C2140000F6140000661400000000FC4265
:1043C0000000FE420000004B000040430000004D92
:1043D00010F0004FA0D1E5E5A0F50003B3F1FE4FCA
:1043E00021D2DFE503EB4103B3F1007F11D3F5EEFA
:1043F000C00AF1EE10FA05D1430018BFB4EB400F2C
:1044000076D883E701F0004141F0FC5100EE901AAC
:104410007CE7B3F1807F06D210EE903AA3F500035B
:1044200000EE903A72E720F000426FF0FF4C604CD3
:1044300002EB0C03A34210D321F000439C44A4459B
:104440000BD3B0F17E5F18BF5FEA410C50D0B2F1E0
:10445000FF4F98BFB3F1FF4F05D9BDEC068BBDE808
:10446000104000F088B9B0F1FF4F0FD0C1F3C75230
:104470007F2A09DB972A11DAC2F19602012303FA97
:1044800002F2531E0B4205D0002208E011F0004F4B
:1044900055D128E00A4218BF012200D1022210F5AE
:1044A000000F13D028B3B0F1004F26D010F1814F88
:1044B0004FD04FF0FE42B2EB400F94BF01200020DE
:1044C000012202EBE171884239D10CE011F0004F7A
:1044D00002D0012A38D032E0012A02BF9FED350A0E
:1044E000BDEC068B10BD9FED340ABDEC068B10BDF4
:1044F0002FE011F0004F0CD121E0B1F1FF4F1ED0A1
:1045000011F5000F05D011F0004F15D00AB1012AA6
:1045100008D00220FBF7F2FFBDEC068BBDE810408F
:1045200000F01CB90220FBF7E9FF00F017F9BDEC21
:10453000068BB1EE400A10BD0AB1012A04D0B0EEDC
:10454000690ABDEC068B10BDBDEC068B9FED1B0A06
:1045500010BDBDEC068BB7EE000A10BD30EE410A6F
:10456000B5EE001A9FED172A00EE413AB6EE001A9A
:1045700060EE001A00EE431A61EEC11A9FED101AA8
:1045800020EE011A20EE020A9FED0F2A01EE820AA8
:1045900071EE001A11EE900A00F500606FF30B0047
:1045A00009EE100A31EE491A31EE00AA9CE500002E
:1045B000FFFF3F00000080FF0000807F00000080C0
:1045C00000B0B841D49A38BB3BAAB84100B510EE50
:1045D000101A2DED028B81B0524A6846B2EB410FA2
:1045E0002ED94FF0E640B0EB410F94BF00204FF0C2
:1045F000FF3000900098B0EE408A00286ADB10F08F
:10460000010F4BD068EE080A9FED471A9FED470A4D
:1046100000EE810A9FED461A10F0020F00EE801A9C
:10462000B7EE000A00EE810A02BF01B0BDEC028BBA
:1046300000BD00BF01B0B1EE400ABDEC028B00BD71
:104640003C4B21F00042934241D911F0004FDFED85
:104650003A0A20EE201ADFED390A19BF31EE601A4E
:1046600071EE200A31EE201A71EE600ABDEEE01AFA
:1046700011EE100A9FED321A00F0030000EEC10A9D
:104680009FED301A009000EEC10A9FED2F1A00EE48
:10469000C10A9FED2E1A00EEC10AABE728EE080A08
:1046A0009FED2B1ADFED2B0A10F0020F40EE410AAE
:1046B0009FED291A00EE201A61EE000AB0EE480ABA
:1046C00008EE200AB6D101B0BDEC028B00BD00F0AF
:1046D0006DF88FE718EE100A4000B0F17F4F0DD251
:1046E00018EE100AFFF789F9042808BF00F056F801
:1046F000B0EE480A01B0BDEC028B00BD09D101202B
:10470000FBF7FCFE01B0BDEC028B5DF804EB00F0A2
:1047100035B801B0B0EE480ABDEC028B5DF804EB91
:1047200000F026B8B61F927EB93AB2BACA9F2A3DA7
:10473000DDFFFFBE490E494683F9223F0000004BD2
:104740000000C93F00A0FD390020A2331A61342CBB
:10475000336D4C39DA82083CA0AA2ABEDFED030A89
:10476000B7EE001A81EE200A70470000000000003A
:1047700030EE000A704730EE200A7047DFED020A83
:1047800080EEA00A70470000000000009FED020AC2
:1047900020EE000A70470000000000709FED020A42
:1047A00020EE000A70470000000000102DE9F00123
:1047B0004FF07F42B2EB410F9FBF4FF0FF310160DE
:1047C000BDE8F00170474FF0004242EA0123C1F317
:1047D000C752783A551112F01F0C434CCCF1200609
:1047E0007C44C1F3C752A2F178024FEA621204EB93
:1047F000820254F8254008BFD2E9015612D055680C
:1048000004FA0CF425FA06F73C43976805FA0CF510
:1048100027FA06F8D26807FA0CFCF24045EA0805C8
:104820004CEA0206A4FB034CA5FB0352A6FB036360
:104830001D449D4234BF012600261319334416B18E
:10484000934202D903E0934201D2012200E0002208
:10485000624402F1200C9206DC0C42EA443200EE83
:10486000102A5B03DFED210AF8EEC01A00EE103AC1
:104870004FEA9C1C11F0004FB8EE400AC0F800C08F
:1048800020EE201A00EE105ADFED190AB8EE400AA9
:1048900020EE200A71EE810A70EE800A10EE902A56
:1048A00002F500626FF30B0200EE902A70EEE11A3F
:1048B00031EEC11ADFED101A30EE411A9FED0D0AEC
:1048C00020EE800A01EE210A9FED0C1A00EE810A0B
:1048D00004BFBDE8F0017047CCF180510160BDE834
:1048E000F001B1EE400A7047200F000000000036D2
:1048F0000000802C22AAFD29DB0FC92F0000C92F40
:10490000FCF7A4FFFEF71AFEFEF73EFBFEF7FCFAEB
:10491000FEF700FCFEF7DAFBFEF722FDFEF7B2FB26
:10492000FEF7B0FCFEF742FCFEF776FCFEF702FB5A
:1049300000F007F8FEE701460020842900D0C81CDB
:10494000704710B500F0D8FB002010BD7FB50D46B4
:1049500004464169B0F9080081B1A16971B1FFF75E
:10496000EAFFD4E905128DE80700D4E900102B46D0
:10497000226900F0D4FC039004B070BDFFF7DBFFA8
:1049800003A9CDE90001208A2B4682B2D4E90010A8
:1049900000F098FC012801D00020EDE70398EBE738
:1049A0002DE9F041184C0F460546E6682068001DC9
:1049B00000F03FFA38B9206890F82C1001208840A8
:1049C000216981432161681C07D137B12168BDE8A5
:1049D000F0410E48091D00F06FBA20683544B54219
:1049E0004560216805D2A06BBDE8F041091D00F0CB
:1049F0004BBA606B091D00F047FAA06A854200D2ED
:104A0000A562BDE8F08100001C000020BC0600206B
:104A10002DE9F041054600F05BFA2E4CA068401CE1
:104A2000A06020682C4F10B1606940B32DE0256074
:104A3000A068012829D1002606EB860007EB80003C
:104A400000F014FA761C072EF6D323488C3000F0C1
:104A50000DFA2148A03000F009FA1F48B43000F0E8
:104A600005FA1D48C83000F001FA1B48DC3000F0A0
:104A7000FDF919488C3060631430A06305E02068AC
:104A8000E96AC06A884200D82560606A401C60629A
:104A9000E96A0120226988401043206101EB81000E
:104AA00007EB8000291D00F007FA00F031FA606979
:104AB00000280CD02068E96AC06A884207D20749FA
:104AC0004FF080500860BFF34F8FBFF36F8FBDE88A
:104AD000F08100001C000020E005002004ED00E053
:104AE00010B5044690F8510058B101280CD00228A6
:104AF0000FD0502080F31188BFF34F8FBFF36F8F1B
:104B0000FEE7206B00F018FA2046BDE8104000F0E8
:104B100013BA10BD10484FF47051420706D0C01DA3
:104B20000D4920F00700411AC1F570510B4A0023CE
:104B30000144C2E900030839183A21F00701116065
:104B40004B600B600B1AC0E9001393604FF00040FC
:104B50005360506170470000D006002070000020B4
:104B6000144E154CA6F1C8074FF08058DFF84C9052
:104B700012E000BF00F0ACF9F068C568281D00F035
:104B800058F9A068401EA0606068401E606000F098
:104B9000BFF92846FFF7A4FF60680028EAD138680B
:104BA0000128F9D9C9F80080BFF34F8FBFF36F8F89
:104BB000F2E70000A80600201C00002004ED00E041
:104BC0002DE9F0479A46DDE9098481466FF0030339
:104BD000206B03EB82021044089E20F00707780741
:104BE00007D0502080F31188BFF34F8FBFF36F8F32
:104BF000FEE7002561B1002023180A5C83F8342009
:104C00000A5C12B1401C1028F6D384F8435001E02E
:104C100084F83450072E00D30626E662C4E91165F5
:104C2000201D00F02EF904F1180000F02AF924618B
:104C3000C6F107006462A061E56484F850505246F2
:104C40004946384600F0C0F82060B8F1000F01D0A6
:104C5000C8F80040BDE8F08730B5114900E01146C2
:104C60000A688242FBD34B685C18844203D14068D7
:104C700018444860084643681C18944209D1084CFF
:104C8000183C2468A24209D052681A4442600A685B
:104C900012680260814200D0086030BD0460F9E70C
:104CA000700000200648416B096829B1416BC96852
:104CB000C9684968816270474FF0FF31FAE7000028
:104CC0001C00002008484068401C4FF0500080F352
:104CD000118804D0BFF34F8FBFF36F8FFEE7BFF390
:104CE0004F8FBFF36F8FFEE7780000202DE9F04172
:104CF0000546002700F036FA324E306808B9FFF753
:104D000009FF706905424ED1C5B3083568070ED05A
:104D100005F00700C0F108000544680707D05020DF
:104D200080F31188BFF34F8FBFF36F8FFEE72DB372
:104D30007068854237D82348183001460C6801E076
:104D400020460C466168A94202D221680029F7D1A9
:104D500031688C4227D00768216801606068083795
:104D6000411B10290FD96019420708D0502080F349
:104D70001188BFF34F8FBFF36F8FFEE713E04160E1
:104D80006560FFF769FF61687068401A7060B2681B
:104D9000904200D2B060706901430020C4E9000174
:104DA000F068401CF06000F051FB780707D05020FD
:104DB00080F31188BFF34F8FBFF36F8FFEE7384644
:104DC000BDE8F0815800002010B5031F4FF080743B
:104DD0001C601B1F21F001011960191F044B0B609F
:104DE00014390A60091F6FF0020244380A6010BDCE
:104DF000C54C000810B500EE100A2DED028BB1EE87
:104E0000C08A18EE100A20F00040C0F1FF40C00F29
:104E10000AD010EE100A20F00040C0F1FF40C00F91
:104E200004BF0120FBF76AFB18EE100ABDEC028BF1
:104E300010BDD0E9013201699A60D0E901235A60BE
:104E40004A68824201D182684A6000220261086891
:104E5000401E086008687047034B036003F154006C
:104E60000860802010607047E000002000F1080119
:104E70004FF0FF32C0E90112C16001610021016001
:104E8000704700210161704730B50B685A1C02D091
:104E900000F1080202E0026904E022465468256835
:104EA0009D42FAD953684B6099608A6051600861ED
:104EB0000168491C016030BD42684A6093688B609C
:104EC00093685960916008610168491C01607047EE
:104ED000502080F31188BFF34F8FBFF36F8F0A49C3
:104EE0004868401C486001280CD10848006810F050
:104EF000FF0F07D0502080F31188BFF34F8FBFF30F
:104F00006F8FFEE7704700007800002004ED00E09E
:104F10000849486828B1401E486001D180F31188D3
:104F20007047502080F31188BFF34F8FBFF36F8F0E
:104F3000FEE700007800002070B500282AD0164D4A
:104F4000A0F1080460686969084207D1502080F325
:104F50001188BFF34F8FBFF36F8FFEE722683AB11E
:104F6000502080F31188BFF34F8FBFF36F8FFEE7A0
:104F70008843606000F0F6F860686968084468601B
:104F80002046FFF769FE2869401C2861BDE8704093
:104F900000F05CBA70BD0000580000204FF0E02027
:104FA00000210161816105494FF47A720968B1FB02
:104FB000F2F1491E4161072101617047180000208C
:104FC00070B50D4604000BD095B11E4A106BB8B1F8
:104FD000502080F31188BFF34F8FBFF36F8FFEE730
:104FE000502080F31188BFF34F8FBFF36F8FFEE720
:104FF000502080F31188BFF34F8FBFF36F8FFEE710
:1050000000F0B0F8D26823685919934204D98B4252
:105010000AD9914202D807E08B42FAD9881A216056
:105020000021FFF7BDFC00E0216000F00FFA00282E
:1050300007D105494FF080500860BFF34F8FBFF391
:105040006F8F70BD1C00002004ED00E070B50546B8
:10505000FFF73EFF254C05B92568281DFFF7E9FE3F
:1050600058B9E86A224A00EB800152F8211021B9B0
:1050700001218140206988432061A86A18B105F1A7
:105080001800FFF7D6FE606A401C60622068854207
:1050900008D11748291DC830FFF70EFF6068401C73
:1050A000606007E0A068401EA0602846FFF718FD7A
:1050B000FFF7F8FDFFF72CFF6069002814D0206887
:1050C000854211D1206B38B1502080F31188BFF395
:1050D0004F8FBFF36F8FFEE706494FF08050086097
:1050E000BFF34F8FBFF36F8F70BD00001C00002017
:1050F000E005002004ED00E010B586B00024039424
:1051000005AA04A903A80494FFF7A6FEDDE903019C
:105110000094CDE9011000230EA11048059A00F07B
:10512000FEF80F490028C86211D0502080F3118882
:10513000BFF34F8FBFF36F8F4FF0FF3088620120B6
:105140004861CC6006B0BDE8104000F041B806B040
:1051500010BD000049444C4500000000614B0008B0
:105160001C0000200248016B491C016370470000CD
:105170001C0000201448016B11B10121C16170476E
:105180000021C1610169B1FA81F1C1F11F0101EB97
:1051900081020E4951F822306BB101EB820101F11D
:1051A00008034A6852684A609A4201D152684A60CC
:1051B000D16801607047502080F31188BFF34F8F92
:1051C000BFF36F8FFEE700001C000020E005002009
:1051D0001CB537480168374A914207D1502080F307
:1051E0001188BFF34F8FBFF36F8FFEE7006831491F
:1051F000491E884207D1502080F31188BFF34F8F9A
:10520000BFF36F8FFEE72C4908780190FF200870EC
:1052100008788DF800009DF800009DF8002000F04F
:10522000F000904207D0502080F31188BFF34F8FD9
:10523000BFF36F8FFEE79DF80000204C00F0500098
:1052400020700720A06005E09DF8002052008DF836
:105250000020401E9DF800201206F5D4A06003280F
:1052600007D0502080F31188BFF34F8FBFF36F8FAB
:10527000FEE74FF44070A060019808700C482030A1
:10528000016841F470010160016841F07041016002
:10529000FFF784FE00206060FAF7FCFF0848016811
:1052A00041F040410160FAF7E1FF00201CBD000021
:1052B00000ED00E071C20F4100E400E07800002042
:1052C00034EF00E02DE9FF5F8346DDE90E87994664
:1052D00016468A469000FFF709FD05001CD05420B1
:1052E000FFF704FD040014D00020256384F851006A
:1052F000CDE90240CDE900874B463246514658463B
:10530000FFF75EFC2046FFF783FB012004B0BDE8F9
:10531000F09F2846FFF710FE4FF0FF30F6E7F0B59C
:1053200085B0DDE90B640A9DA6B1DCB15427009776
:105330002663022684F85160002604AFCDE90246B8
:10534000CDE90057FFF73CFC2046FFF761FB0498CE
:1053500005B0F0BD502080F31188BFF34F8FBFF32D
:105360006F8FFEE7502080F31188BFF34F8FBFF39C
:105370006F8FFEE70148C068704700001C000020E6
:105380002DE9F0412F4C0026206B28B1A069401C6C
:10539000A0613046BDE8F081E5686D1CE56013D181
:1053A000606B006838B1502080F31188BFF34F8FD5
:1053B000BFF36F8FFEE7606BA16B6163A063206A30
:1053C000401C2062FFF76EFCA06ADFF87C808542FB
:1053D00009D3606B0068A0B1606BC068C76878686B
:1053E000854211D2A0622068C06A00EB800158F8A3
:1053F0002100012800D90126E0690028C9D0012632
:10540000C7E74FF0FF30EDE7381DFFF712FDB86A30
:1054100018B107F11800FFF70CFDF96A01202269A5
:1054200088401043206101EB810108EB8100391DA8
:10543000FFF742FDF86A2168C96A8842C9D301268C
:10544000C7E700001C000020E00500202DE9F04720
:105450002C4D00242746286B38B1FFF739FD286B07
:10546000401E2863286B40B146E0502080F311882D
:10547000BFF34F8FBFF36F8FFEE7A968224E012065
:10548000D1B3A6F1B40980463068E8B1F068C468C9
:1054900004F11800FFF7CDFC201DFFF7CAFCE06AFD
:1054A0002A6908FA00F11143296100EB800109EB38
:1054B0008100211DFFF700FDE06A2968C96A884262
:1054C000E2D3C5F81C80DFE70CB1FFF7EBFBAC695A
:1054D00044B14646FFF754FF00B1EE61641EF9D1B6
:1054E0000020A861E86938B1084901273807086039
:1054F000BFF34F8FBFF36F8FFFF70AFD3846BDE84C
:10550000F08700001C0000209406002004ED00E05D
:105510004FF04070E1EE100A704700002457000879
:10552000DD340008000000000000000080010000E1
:105530000000000000000000405700086D14000843
:1055400002000000000000008000000000000000D9
:105550000000000030570008A933000803000000D5
:1055600000000000800200000000000000000000B9
:1055700000061016000610160000000000000000D3
:1055800001020304060708090000000001020304E9
:105590006B806B036C001A041B181C101D026A2020
:1055A000000000000000003F0000B4420000B442D0
:1055B000000000000000803F00000000000000002C
:1055C0000000000000000000000000000000B33FE9
:1055D000B2BE7D3A00002E40DFCF513800007E4041
:1055E000BF51FABA00E0A44019DAC3BA00E0C840DB
:1055F000C2ED8AB90040EB40CD1F2CBA0010064125
:105600002AFFFABA00C01541DFCFD13700D02441BC
:105610009A97703A0050334189478E360040414195
:10562000E75B9D3800B04E41C00A98B900A05B41CD
:10563000558F943A00306841DA92C0BA0040744104
:1056400062B3C63A0000803F00A0853F00908B3FC8
:1056500000C0913F0030983F00F09E3F00F0A53F12
:105660000050AD3F0000B53F0000BD3F0060C53FAA
:105670000020CE3F0040D73F00C0E03F00C0EA3FDF
:105680000020F53F000000007D36AC397D3C383904
:10569000EBDCF438320A7E39124C26399B6AED393C
:1056A000A4EE83397F661E39F6398A392B42653973
:1056B000A48211395B991F39C3EECD39DDE7C637B6
:1056C000A5A22F390000803FC3AA853FC2958B3F1A
:1056D000D3C3913FF037983F32F59E3FD7FEA53FA9
:1056E0003F58AD3FF304B53FA408BD3F2A67C53F0F
:1056F0008C24CE3FFD44D73FDFCCE03FC7C0EA3F1C
:105700007D25F53F000000006E83F9A22915444E67
:10571000D15727FCC0DD34F5999562DB4190433CBD
:10572000AB6351FE5461736B5F494D55000000003F
:105730005461736B5F526F626F745F4374726C007D
:105740005461736B5F496E69740000006C57000808
:1057500000000020E0000000E80100084C580008AC
:10576000E0000020B0490000040200080000000032
:105770000000000000000000010000001000000018
:10578000000000000024F400000000000000000001
:105790000000000000000000000000000000000009
:1057A00000000000000000000000000000000000F9
:1057B00000000000000000000000000000000000E9
:1057C00000000000000000000000000000000000D9
:1057D00000000000000000000000000000000000C9
:1057E0000000000000000000AAAAAAAA0000000011
:1057F000E9090008B9090008C9330008CB330008DB
:105800006107000831060008F9070008850500084F
:105810009D0900080000FF000000000000000000DB
:1058200000000000DD0B0008190C0008110B000837
:105830008D2D00086D2D0008632D00084D0A00080D
:0C584000A1330008A33300089F330008C8
:04000005080001AD41
:00000001FF
